{
  "contractName": "Forest",
  "abi": [
    {
      "anonymous": false,
      "inputs": [],
      "name": "LogRecordAdded",
      "type": "event"
    },
    {
      "inputs": [
        {
          "internalType": "uint256",
          "name": "",
          "type": "uint256"
        }
      ],
      "name": "records",
      "outputs": [
        {
          "internalType": "uint256",
          "name": "rTime",
          "type": "uint256"
        },
        {
          "internalType": "string",
          "name": "rTribe",
          "type": "string"
        },
        {
          "internalType": "string",
          "name": "rFamily",
          "type": "string"
        },
        {
          "internalType": "uint256",
          "name": "rCoffeeTrees",
          "type": "uint256"
        },
        {
          "internalType": "string",
          "name": "rPhoto",
          "type": "string"
        },
        {
          "internalType": "int256",
          "name": "rLat",
          "type": "int256"
        },
        {
          "internalType": "int256",
          "name": "rLon",
          "type": "int256"
        }
      ],
      "stateMutability": "view",
      "type": "function",
      "constant": true
    },
    {
      "stateMutability": "payable",
      "type": "receive",
      "payable": true
    },
    {
      "inputs": [],
      "name": "getRecordsCount",
      "outputs": [
        {
          "internalType": "uint256",
          "name": "",
          "type": "uint256"
        }
      ],
      "stateMutability": "view",
      "type": "function",
      "constant": true
    },
    {
      "inputs": [
        {
          "internalType": "string",
          "name": "_rTribe",
          "type": "string"
        },
        {
          "internalType": "string",
          "name": "_rFamily",
          "type": "string"
        },
        {
          "internalType": "uint256",
          "name": "_rCoffeeTrees",
          "type": "uint256"
        },
        {
          "internalType": "string",
          "name": "_rPhoto",
          "type": "string"
        },
        {
          "internalType": "int256",
          "name": "_rLat",
          "type": "int256"
        },
        {
          "internalType": "int256",
          "name": "_rLon",
          "type": "int256"
        }
      ],
      "name": "addRecord",
      "outputs": [],
      "stateMutability": "nonpayable",
      "type": "function"
    }
  ],
  "bytecode": "0x608060405234801561001057600080fd5b5061097a806100206000396000f3fe6080604052600436106100385760003560e01c8063344610671461007d578063505158bb146100c0578063b9031a16146100eb57610078565b36610078576040517f08c379a000000000000000000000000000000000000000000000000000000000815260040161006f906106e3565b60405180910390fd5b600080fd5b34801561008957600080fd5b506100a4600480360381019061009f9190610623565b610114565b6040516100b7979695949392919061071e565b60405180910390f35b3480156100cc57600080fd5b506100d56102fe565b6040516100e29190610703565b60405180910390f35b3480156100f757600080fd5b50610112600480360381019061010d9190610552565b61030a565b005b6000818154811061012457600080fd5b906000526020600020906007020160009150905080600001549080600101805461014d90610875565b80601f016020809104026020016040519081016040528092919081815260200182805461017990610875565b80156101c65780601f1061019b576101008083540402835291602001916101c6565b820191906000526020600020905b8154815290600101906020018083116101a957829003601f168201915b5050505050908060020180546101db90610875565b80601f016020809104026020016040519081016040528092919081815260200182805461020790610875565b80156102545780601f1061022957610100808354040283529160200191610254565b820191906000526020600020905b81548152906001019060200180831161023757829003601f168201915b50505050509080600301549080600401805461026f90610875565b80601f016020809104026020016040519081016040528092919081815260200182805461029b90610875565b80156102e85780601f106102bd576101008083540402835291602001916102e8565b820191906000526020600020905b8154815290600101906020018083116102cb57829003601f168201915b5050505050908060050154908060060154905087565b60008080549050905090565b60006040518060e0016040528042815260200188815260200187815260200186815260200185815260200184815260200183815250908060018154018082558091505060019003906000526020600020906007020160009091909190915060008201518160000155602082015181600101908051906020019061038e92919061041d565b5060408201518160020190805190602001906103ab92919061041d565b506060820151816003015560808201518160040190805190602001906103d292919061041d565b5060a0820151816005015560c0820151816006015550507f96ff4d1a0a02d8a16f5f2569c1bd1172f3e60b98d526e01226abca6b797dbde260405160405180910390a1505050505050565b82805461042990610875565b90600052602060002090601f01602090048101928261044b5760008555610492565b82601f1061046457805160ff1916838001178555610492565b82800160010185558215610492579182015b82811115610491578251825591602001919060010190610476565b5b50905061049f91906104a3565b5090565b5b808211156104bc5760008160009055506001016104a4565b5090565b60006104d36104ce846107d3565b6107a2565b9050828152602081018484840111156104eb57600080fd5b6104f6848285610833565b509392505050565b60008135905061050d81610916565b92915050565b600082601f83011261052457600080fd5b81356105348482602086016104c0565b91505092915050565b60008135905061054c8161092d565b92915050565b60008060008060008060c0878903121561056b57600080fd5b600087013567ffffffffffffffff81111561058557600080fd5b61059189828a01610513565b965050602087013567ffffffffffffffff8111156105ae57600080fd5b6105ba89828a01610513565b95505060406105cb89828a0161053d565b945050606087013567ffffffffffffffff8111156105e857600080fd5b6105f489828a01610513565b935050608061060589828a016104fe565b92505060a061061689828a016104fe565b9150509295509295509295565b60006020828403121561063557600080fd5b60006106438482850161053d565b91505092915050565b6106558161081f565b82525050565b600061066682610803565b610670818561080e565b9350610680818560208601610842565b61068981610905565b840191505092915050565b60006106a160198361080e565b91507f5061796d656e747320617265206e6f74206163636570746564000000000000006000830152602082019050919050565b6106dd81610829565b82525050565b600060208201905081810360008301526106fc81610694565b9050919050565b600060208201905061071860008301846106d4565b92915050565b600060e082019050610733600083018a6106d4565b8181036020830152610745818961065b565b90508181036040830152610759818861065b565b905061076860608301876106d4565b818103608083015261077a818661065b565b905061078960a083018561064c565b61079660c083018461064c565b98975050505050505050565b6000604051905081810181811067ffffffffffffffff821117156107c9576107c86108d6565b5b8060405250919050565b600067ffffffffffffffff8211156107ee576107ed6108d6565b5b601f19601f8301169050602081019050919050565b600081519050919050565b600082825260208201905092915050565b6000819050919050565b6000819050919050565b82818337600083830152505050565b60005b83811015610860578082015181840152602081019050610845565b8381111561086f576000848401525b50505050565b6000600282049050600182168061088d57607f821691505b602082108114156108a1576108a06108a7565b5b50919050565b7f4e487b7100000000000000000000000000000000000000000000000000000000600052602260045260246000fd5b7f4e487b7100000000000000000000000000000000000000000000000000000000600052604160045260246000fd5b6000601f19601f8301169050919050565b61091f8161081f565b811461092a57600080fd5b50565b61093681610829565b811461094157600080fd5b5056fea2646970667358221220ea547ee3fe328502b80820a9611cb5c01c7eb6f89bb6939db546d1e171826e7264736f6c63430008000033",
  "immutableReferences": {},
  "source": "// SPDX-License-Identifier: MIT\npragma solidity ^0.8.0;\n\n/**\n * @title Forest tracking platform\n * @author Roman Vinogradov <dev.romanv@gmail.com>\n */\ncontract Forest {\n\n  struct Record {\n    // Record timestamp\n    uint256 rTime;\n    // Name of the tribe\n    string rTribe;\n    // Name of the family in the tribe\n    string rFamily;\n    // Number of coffee trees\n    uint256 rCoffeeTrees;\n    // IPFS hash of the photo\n    string rPhoto;\n    // GPS coordinates of the plant, multiplier 100000000\n    int256 rLat;\n    int256 rLon;\n  }\n\n  // List of records\n  Record[] public records;\n\n  event LogRecordAdded();\n\n  receive() external payable {\n    revert(\"Payments are not accepted\");\n  }\n\n  function getRecordsCount() public view returns (uint256) {\n    return records.length;\n  }\n\n  function addRecord(string memory _rTribe, string memory _rFamily, uint256 _rCoffeeTrees, string memory _rPhoto, int256 _rLat, int256 _rLon) public {\n    // add a new Record record to the list\n    records.push(Record(block.timestamp, _rTribe, _rFamily, _rCoffeeTrees, _rPhoto, _rLat, _rLon));\n    emit LogRecordAdded();\n  }\n}\n",
  "sourcePath": "/Users/rafael/Dropbox/work/c5/c5-dapp/contracts/Forest.sol",
  "compiler": {
    "name": "solc",
    "version": "0.8.0+commit.c7dfd78e.Emscripten.clang"
  },
  "schemaVersion": "3.3.3",
  "updatedAt": "2021-04-15T16:43:55.342Z",
  "networkType": "ethereum",
  "devdoc": {
    "author": "Roman Vinogradov <dev.romanv@gmail.com>",
    "kind": "dev",
    "methods": {},
    "title": "Forest tracking platform",
    "version": 1
  },
  "userdoc": {
    "kind": "user",
    "methods": {},
    "version": 1
  }
}