{
  "contractName": "Forest",
  "abi": [
    {
      "anonymous": false,
      "inputs": [],
      "name": "LogRecordAdded",
      "type": "event"
    },
    {
      "inputs": [
        {
          "internalType": "uint256",
          "name": "",
          "type": "uint256"
        }
      ],
      "name": "records",
      "outputs": [
        {
          "internalType": "uint256",
          "name": "rTime",
          "type": "uint256"
        },
        {
          "internalType": "string",
          "name": "rPhoto",
          "type": "string"
        },
        {
          "internalType": "int256",
          "name": "rLat",
          "type": "int256"
        },
        {
          "internalType": "int256",
          "name": "rLon",
          "type": "int256"
        }
      ],
      "stateMutability": "view",
      "type": "function"
    },
    {
      "stateMutability": "payable",
      "type": "receive"
    },
    {
      "inputs": [],
      "name": "getRecordsCount",
      "outputs": [
        {
          "internalType": "uint256",
          "name": "",
          "type": "uint256"
        }
      ],
      "stateMutability": "view",
      "type": "function"
    },
    {
      "inputs": [
        {
          "internalType": "string",
          "name": "_rPhoto",
          "type": "string"
        },
        {
          "internalType": "int256",
          "name": "_rLat",
          "type": "int256"
        },
        {
          "internalType": "int256",
          "name": "_rLon",
          "type": "int256"
        }
      ],
      "name": "addRecord",
      "outputs": [],
      "stateMutability": "nonpayable",
      "type": "function"
    }
  ],
  "bytecode": "0x608060405234801561001057600080fd5b5061075a806100206000396000f3fe6080604052600436106100385760003560e01c8063314bf6c01461007d57806334461067146100a6578063505158bb146100e657610078565b36610078576040517f08c379a000000000000000000000000000000000000000000000000000000000815260040161006f906104fb565b60405180910390fd5b600080fd5b34801561008957600080fd5b506100a4600480360381019061009f91906103d4565b610111565b005b3480156100b257600080fd5b506100cd60048036038101906100c8919061043b565b6101cb565b6040516100dd9493929190610536565b60405180910390f35b3480156100f257600080fd5b506100fb610293565b604051610108919061051b565b60405180910390f35b6000604051806080016040528042815260200185815260200184815260200183815250908060018154018082558091505060019003906000526020600020906004020160009091909190915060008201518160000155602082015181600101908051906020019061018392919061029f565b50604082015181600201556060820151816003015550507f96ff4d1a0a02d8a16f5f2569c1bd1172f3e60b98d526e01226abca6b797dbde260405160405180910390a1505050565b600081815481106101db57600080fd5b906000526020600020906004020160009150905080600001549080600101805461020490610655565b80601f016020809104026020016040519081016040528092919081815260200182805461023090610655565b801561027d5780601f106102525761010080835404028352916020019161027d565b820191906000526020600020905b81548152906001019060200180831161026057829003601f168201915b5050505050908060020154908060030154905084565b60008080549050905090565b8280546102ab90610655565b90600052602060002090601f0160209004810192826102cd5760008555610314565b82601f106102e657805160ff1916838001178555610314565b82800160010185558215610314579182015b828111156103135782518255916020019190600101906102f8565b5b5090506103219190610325565b5090565b5b8082111561033e576000816000905550600101610326565b5090565b6000610355610350846105b3565b610582565b90508281526020810184848401111561036d57600080fd5b610378848285610613565b509392505050565b60008135905061038f816106f6565b92915050565b600082601f8301126103a657600080fd5b81356103b6848260208601610342565b91505092915050565b6000813590506103ce8161070d565b92915050565b6000806000606084860312156103e957600080fd5b600084013567ffffffffffffffff81111561040357600080fd5b61040f86828701610395565b935050602061042086828701610380565b925050604061043186828701610380565b9150509250925092565b60006020828403121561044d57600080fd5b600061045b848285016103bf565b91505092915050565b61046d816105ff565b82525050565b600061047e826105e3565b61048881856105ee565b9350610498818560208601610622565b6104a1816106e5565b840191505092915050565b60006104b96019836105ee565b91507f5061796d656e747320617265206e6f74206163636570746564000000000000006000830152602082019050919050565b6104f581610609565b82525050565b60006020820190508181036000830152610514816104ac565b9050919050565b600060208201905061053060008301846104ec565b92915050565b600060808201905061054b60008301876104ec565b818103602083015261055d8186610473565b905061056c6040830185610464565b6105796060830184610464565b95945050505050565b6000604051905081810181811067ffffffffffffffff821117156105a9576105a86106b6565b5b8060405250919050565b600067ffffffffffffffff8211156105ce576105cd6106b6565b5b601f19601f8301169050602081019050919050565b600081519050919050565b600082825260208201905092915050565b6000819050919050565b6000819050919050565b82818337600083830152505050565b60005b83811015610640578082015181840152602081019050610625565b8381111561064f576000848401525b50505050565b6000600282049050600182168061066d57607f821691505b6020821081141561068157610680610687565b5b50919050565b7f4e487b7100000000000000000000000000000000000000000000000000000000600052602260045260246000fd5b7f4e487b7100000000000000000000000000000000000000000000000000000000600052604160045260246000fd5b6000601f19601f8301169050919050565b6106ff816105ff565b811461070a57600080fd5b50565b61071681610609565b811461072157600080fd5b5056fea26469706673582212200915de694a2f3479224895b952b01e91fee1b9217eb9d5a51173221cac5f8a2664736f6c63430008000033",
  "immutableReferences": {},
  "source": "// SPDX-License-Identifier: MIT\r\npragma solidity ^0.8.0;\r\n\r\n/**\r\n * @title Forest tracking platform\r\n * @author Roman Vinogradov <dev.romanv@gmail.com>\r\n */\r\ncontract Forest {\r\n    /**\r\n     * @dev Record:\r\n     * {rTime} - timestamp of the record\r\n     * {rPhoto} - PFS hash of the photo\r\n     * {rLat, rLon} - GPS coordinates of the plant multiplied by 100000000\r\n     */\r\n    struct Record {\r\n        uint256 rTime;\r\n        string rPhoto;\r\n        int256 rLat;\r\n        int256 rLon;\r\n    }\r\n\r\n    /**\r\n     * @dev List of records\r\n     */\r\n    Record[] public records;\r\n\r\n    /**\r\n     * @dev Events:\r\n     * {LogRecordAdded} - emits on addRecord\r\n     */\r\n    event LogRecordAdded();\r\n\r\n    receive() external payable {\r\n        revert(\"Payments are not accepted\");\r\n    }\r\n\r\n    /**\r\n     * @dev getRecordsCount\r\n     * Returns the length of the records array\r\n     */\r\n    function getRecordsCount() public view returns (uint256) {\r\n        return records.length;\r\n    }\r\n\r\n    /**\r\n     * @dev addRecord\r\n     * Creates new record and emits {LogRecordAdded} event\r\n     */\r\n    function addRecord(\r\n        string memory _rPhoto,\r\n        int256 _rLat,\r\n        int256 _rLon\r\n    ) public {\r\n        // add a new Record record to the list\r\n        records.push(Record(block.timestamp, _rPhoto, _rLat, _rLon));\r\n        emit LogRecordAdded();\r\n    }\r\n}\r\n",
  "sourcePath": "C:/Users/jugli/Desktop/c5v/c5-dapp/contracts/TeamRecords.sol",
  "compiler": {
    "name": "solc",
    "version": "0.8.0+commit.c7dfd78e.Emscripten.clang"
  },
  "schemaVersion": "3.4.1",
  "updatedAt": "2021-05-27T16:15:02.238Z",
  "devdoc": {
    "author": "Roman Vinogradov <dev.romanv@gmail.com>",
    "events": {
      "LogRecordAdded()": {
        "details": "Events: {LogRecordAdded} - emits on addRecord"
      }
    },
    "kind": "dev",
    "methods": {
      "addRecord(string,int256,int256)": {
        "details": "addRecord Creates new record and emits {LogRecordAdded} event"
      },
      "getRecordsCount()": {
        "details": "getRecordsCount Returns the length of the records array"
      }
    },
    "stateVariables": {
      "records": {
        "details": "List of records"
      }
    },
    "title": "Forest tracking platform",
    "version": 1
  },
  "userdoc": {
    "kind": "user",
    "methods": {},
    "version": 1
  }
}