{
  "contractName": "TeamRecords",
  "abi": [
    {
      "anonymous": false,
      "inputs": [],
      "name": "LogRecordAdded",
      "type": "event"
    },
    {
      "anonymous": false,
      "inputs": [
        {
          "indexed": false,
          "internalType": "address",
          "name": "from",
          "type": "address"
        },
        {
          "components": [
            {
              "internalType": "uint256",
              "name": "rTime",
              "type": "uint256"
            },
            {
              "components": [
                {
                  "internalType": "string",
                  "name": "IPFS",
                  "type": "string"
                },
                {
                  "internalType": "enum TeamRecords.FileType",
                  "name": "fileType",
                  "type": "uint8"
                }
              ],
              "internalType": "struct TeamRecords.File",
              "name": "rFile",
              "type": "tuple"
            },
            {
              "internalType": "int256",
              "name": "rLat",
              "type": "int256"
            },
            {
              "internalType": "int256",
              "name": "rLon",
              "type": "int256"
            },
            {
              "internalType": "uint256",
              "name": "index",
              "type": "uint256"
            }
          ],
          "indexed": false,
          "internalType": "struct TeamRecords.Record",
          "name": "record",
          "type": "tuple"
        }
      ],
      "name": "LogRecordRemoved",
      "type": "event"
    },
    {
      "inputs": [
        {
          "internalType": "uint256",
          "name": "",
          "type": "uint256"
        }
      ],
      "name": "records",
      "outputs": [
        {
          "internalType": "uint256",
          "name": "rTime",
          "type": "uint256"
        },
        {
          "components": [
            {
              "internalType": "string",
              "name": "IPFS",
              "type": "string"
            },
            {
              "internalType": "enum TeamRecords.FileType",
              "name": "fileType",
              "type": "uint8"
            }
          ],
          "internalType": "struct TeamRecords.File",
          "name": "rFile",
          "type": "tuple"
        },
        {
          "internalType": "int256",
          "name": "rLat",
          "type": "int256"
        },
        {
          "internalType": "int256",
          "name": "rLon",
          "type": "int256"
        },
        {
          "internalType": "uint256",
          "name": "index",
          "type": "uint256"
        }
      ],
      "stateMutability": "view",
      "type": "function",
      "constant": true
    },
    {
      "stateMutability": "payable",
      "type": "receive",
      "payable": true
    },
    {
      "inputs": [],
      "name": "getRecordsCount",
      "outputs": [
        {
          "internalType": "uint256",
          "name": "",
          "type": "uint256"
        }
      ],
      "stateMutability": "view",
      "type": "function",
      "constant": true
    },
    {
      "inputs": [
        {
          "components": [
            {
              "internalType": "string",
              "name": "IPFS",
              "type": "string"
            },
            {
              "internalType": "enum TeamRecords.FileType",
              "name": "fileType",
              "type": "uint8"
            }
          ],
          "internalType": "struct TeamRecords.File",
          "name": "_rFile",
          "type": "tuple"
        },
        {
          "internalType": "int256",
          "name": "_rLat",
          "type": "int256"
        },
        {
          "internalType": "int256",
          "name": "_rLon",
          "type": "int256"
        }
      ],
      "name": "addRecord",
      "outputs": [],
      "stateMutability": "nonpayable",
      "type": "function"
    },
    {
      "inputs": [
        {
          "internalType": "uint256",
          "name": "index",
          "type": "uint256"
        }
      ],
      "name": "removeRecord",
      "outputs": [],
      "stateMutability": "nonpayable",
      "type": "function"
    }
  ],
  "bytecode": "0x608060405234801561001057600080fd5b50611153806100206000396000f3fe6080604052600436106100435760003560e01c80633446106714610088578063505158bb146100c95780638693a683146100f4578063e6c6257c1461011d57610083565b36610083576040517f08c379a000000000000000000000000000000000000000000000000000000000815260040161007a90610d37565b60405180910390fd5b600080fd5b34801561009457600080fd5b506100af60048036038101906100aa91906109dc565b610146565b6040516100c0959493929190610d72565b60405180910390f35b3480156100d557600080fd5b506100de6102af565b6040516100eb9190610d57565b60405180910390f35b34801561010057600080fd5b5061011b600480360381019061011691906109dc565b6102bb565b005b34801561012957600080fd5b50610144600480360381019061013f9190610975565b6105ca565b005b6000818154811061015657600080fd5b90600052602060002090600602016000915090508060000154908060010160405180604001604052908160008201805461018f90610f71565b80601f01602080910402602001604051908101604052809291908181526020018280546101bb90610f71565b80156102085780601f106101dd57610100808354040283529160200191610208565b820191906000526020600020905b8154815290600101906020018083116101eb57829003601f168201915b505050505081526020016001820160009054906101000a900460ff16600481111561025c577f4e487b7100000000000000000000000000000000000000000000000000000000600052602160045260246000fd5b6004811115610294577f4e487b7100000000000000000000000000000000000000000000000000000000600052602160045260246000fd5b81525050908060030154908060040154908060050154905085565b60008080549050905090565b6000805490508110610302576040517f08c379a00000000000000000000000000000000000000000000000000000000081526004016102f990610d17565b60405180910390fd5b7ff5fb0599ada33c9d9277defe69cbe77eb1cc982bb995c27c9dc7a0b4a0285141336000838154811061035e577f4e487b7100000000000000000000000000000000000000000000000000000000600052603260045260246000fd5b906000526020600020906006020160405161037a929190610ce7565b60405180910390a1600060016000805490506103969190610e6f565b815481106103cd577f4e487b7100000000000000000000000000000000000000000000000000000000600052603260045260246000fd5b906000526020600020906006020160008281548110610415577f4e487b7100000000000000000000000000000000000000000000000000000000600052603260045260246000fd5b9060005260206000209060060201600082015481600001556001820181600101600082018160000190805461044990610f71565b6104549291906106fa565b506001820160009054906101000a900460ff168160010160006101000a81548160ff021916908360048111156104b3577f4e487b7100000000000000000000000000000000000000000000000000000000600052602160045260246000fd5b021790555050506003820154816003015560048201548160040155600582015481600501559050508060008281548110610516577f4e487b7100000000000000000000000000000000000000000000000000000000600052603260045260246000fd5b9060005260206000209060060201600501819055506000805480610563577f4e487b7100000000000000000000000000000000000000000000000000000000600052603160045260246000fd5b600190038181906000526020600020906006020160008082016000905560018201600080820160006105959190610787565b6001820160006101000a81549060ff021916905550506003820160009055600482016000905560058201600090555050905550565b60006040518060a0016040528042815260200185815260200184815260200183815260200160008054905081525090806001815401808255809150506001900390600052602060002090600602016000909190919091506000820151816000015560208201518160010160008201518160000190805190602001906106509291906107c7565b5060208201518160010160006101000a81548160ff021916908360048111156106a2577f4e487b7100000000000000000000000000000000000000000000000000000000600052602160045260246000fd5b0217905550505060408201518160030155606082015181600401556080820151816005015550507f96ff4d1a0a02d8a16f5f2569c1bd1172f3e60b98d526e01226abca6b797dbde260405160405180910390a1505050565b82805461070690610f71565b90600052602060002090601f0160209004810192826107285760008555610776565b82601f106107395780548555610776565b8280016001018555821561077657600052602060002091601f016020900482015b8281111561077557825482559160010191906001019061075a565b5b509050610783919061084d565b5090565b50805461079390610f71565b6000825580601f106107a557506107c4565b601f0160209004906000526020600020908101906107c3919061084d565b5b50565b8280546107d390610f71565b90600052602060002090601f0160209004810192826107f5576000855561083c565b82601f1061080e57805160ff191683800117855561083c565b8280016001018555821561083c579182015b8281111561083b578251825591602001919060010190610820565b5b509050610849919061084d565b5090565b5b8082111561086657600081600090555060010161084e565b5090565b600061087d61087884610dfd565b610dcc565b90508281526020810184848401111561089557600080fd5b6108a0848285610f2f565b509392505050565b6000813590506108b7816110df565b92915050565b6000813590506108cc816110ef565b92915050565b600082601f8301126108e357600080fd5b81356108f384826020860161086a565b91505092915050565b60006040828403121561090e57600080fd5b6109186040610dcc565b9050600082013567ffffffffffffffff81111561093457600080fd5b610940848285016108d2565b6000830152506020610954848285016108a8565b60208301525092915050565b60008135905061096f81611106565b92915050565b60008060006060848603121561098a57600080fd5b600084013567ffffffffffffffff8111156109a457600080fd5b6109b0868287016108fc565b93505060206109c1868287016108bd565b92505060406109d2868287016108bd565b9150509250925092565b6000602082840312156109ee57600080fd5b60006109fc84828501610960565b91505092915050565b610a0e81610ec4565b82525050565b610a1d81610f1d565b82525050565b610a2c81610ee9565b82525050565b610a3b81610ee9565b82525050565b6000610a4c82610e42565b610a568185610e4d565b9350610a66818560208601610f3e565b610a6f816110ad565b840191505092915050565b60008154610a8781610f71565b610a918186610e4d565b94506001821660008114610aac5760018114610abe57610af1565b60ff1983168652602086019350610af1565b610ac785610e2d565b60005b83811015610ae957815481890152600182019150602081019050610aca565b808801955050505b50505092915050565b6000610b07602b83610e5e565b91507f54686520696e64657820697320626967676572207468616e207468652061727260008301527f61792773206c656e6774680000000000000000000000000000000000000000006020830152604082019050919050565b6000610b6d601983610e5e565b91507f5061796d656e747320617265206e6f74206163636570746564000000000000006000830152602082019050919050565b60006040830160008301518482036000860152610bbd8282610a41565b9150506020830151610bd26020860182610a14565b508091505092915050565b60006040830160008084018583036000870152610bfa8382610a7a565b92505060018401549050610c0d81610fa3565b610c1a6020870182610a14565b50819250505092915050565b600060a083016000808401549050610c3d81610fd7565b610c4a6000870182610cc9565b50600184018583036020870152610c618382610bdd565b92505060038401549050610c7481610fbd565b610c816040870182610a23565b5060048401549050610c9281610fbd565b610c9f6060870182610a23565b5060058401549050610cb081610fd7565b610cbd6080870182610cc9565b50819250505092915050565b610cd281610f13565b82525050565b610ce181610f13565b82525050565b6000604082019050610cfc6000830185610a05565b8181036020830152610d0e8184610c26565b90509392505050565b60006020820190508181036000830152610d3081610afa565b9050919050565b60006020820190508181036000830152610d5081610b60565b9050919050565b6000602082019050610d6c6000830184610cd8565b92915050565b600060a082019050610d876000830188610cd8565b8181036020830152610d998187610ba0565b9050610da86040830186610a32565b610db56060830185610a32565b610dc26080830184610cd8565b9695505050505050565b6000604051905081810181811067ffffffffffffffff82111715610df357610df261107e565b5b8060405250919050565b600067ffffffffffffffff821115610e1857610e1761107e565b5b601f19601f8301169050602081019050919050565b60008190508160005260206000209050919050565b600081519050919050565b600082825260208201905092915050565b600082825260208201905092915050565b6000610e7a82610f13565b9150610e8583610f13565b925082821015610e9857610e97610ff1565b5b828203905092915050565b600060ff82169050919050565b6000819050919050565b6000819050919050565b6000610ecf82610ef3565b9050919050565b6000819050610ee4826110cb565b919050565b6000819050919050565b600073ffffffffffffffffffffffffffffffffffffffff82169050919050565b6000819050919050565b6000610f2882610ed6565b9050919050565b82818337600083830152505050565b60005b83811015610f5c578082015181840152602081019050610f41565b83811115610f6b576000848401525b50505050565b60006002820490506001821680610f8957607f821691505b60208210811415610f9d57610f9c61104f565b5b50919050565b6000610fb6610fb1836110be565b610ea3565b9050919050565b6000610fd0610fcb836110be565b610eb0565b9050919050565b6000610fea610fe5836110be565b610eba565b9050919050565b7f4e487b7100000000000000000000000000000000000000000000000000000000600052601160045260246000fd5b7f4e487b7100000000000000000000000000000000000000000000000000000000600052602160045260246000fd5b7f4e487b7100000000000000000000000000000000000000000000000000000000600052602260045260246000fd5b7f4e487b7100000000000000000000000000000000000000000000000000000000600052604160045260246000fd5b6000601f19601f8301169050919050565b60008160001c9050919050565b600581106110dc576110db611020565b5b50565b600581106110ec57600080fd5b50565b6110f881610ee9565b811461110357600080fd5b50565b61110f81610f13565b811461111a57600080fd5b5056fea264697066735822122051347ae3cd4fa454c2c3f12d1eac653e9c1e96f3e65ee49c3cc21f02a2e4806d64736f6c63430008000033",
  "immutableReferences": {},
  "source": "// SPDX-License-Identifier: MIT\r\npragma solidity ^0.8.0;\r\n\r\n/**\r\n * @title Forest tracking platform\r\n * @author Roman Vinogradov <dev.romanv@gmail.com>\r\n */\r\ncontract TeamRecords {\r\n    enum FileType {Photo, Text, Audio, Video, PDF}\r\n    struct File {\r\n        string IPFS;\r\n        FileType fileType;\r\n    }\r\n\r\n    /**\r\n     * @dev Record:\r\n     * {rTime} - timestamp of the record\r\n     * {rFile} - IPFS hash of the photo + FileType enum\r\n     * {rLat, rLon} - GPS coordinates of the plant multiplied by 100000000\r\n     */\r\n    struct Record {\r\n        uint256 rTime;\r\n        File rFile;\r\n        int256 rLat;\r\n        int256 rLon;\r\n        uint256 index;\r\n    }\r\n\r\n    /**\r\n     * @dev List of records\r\n     */\r\n    Record[] public records;\r\n\r\n    /**\r\n     * @dev Events:\r\n     * {LogRecordAdded} - emits on addRecord\r\n     * {LogRecordRemoved} - emits on removeRecord\r\n     */\r\n    event LogRecordAdded();\r\n    event LogRecordRemoved(address from, Record record);\r\n\r\n    receive() external payable {\r\n        revert(\"Payments are not accepted\");\r\n    }\r\n\r\n    /**\r\n     * @dev getRecordsCount\r\n     * Returns the length of the records array\r\n     */\r\n    function getRecordsCount() public view returns (uint256) {\r\n        return records.length;\r\n    }\r\n\r\n    /**\r\n     * @dev addRecord\r\n     * Creates new record and emits {LogRecordAdded} event\r\n     */\r\n    function addRecord(\r\n        File memory _rFile,\r\n        int256 _rLat,\r\n        int256 _rLon\r\n    ) external {\r\n        records.push(\r\n            Record(block.timestamp, _rFile, _rLat, _rLon, records.length)\r\n        );\r\n        emit LogRecordAdded();\r\n    }\r\n\r\n    /**\r\n     * @dev removeRecord\r\n     * Removes the record from the contract, emits {LogRecordRemoved}\r\n     */\r\n    function removeRecord(uint256 index) external {\r\n        require(\r\n            index < records.length,\r\n            \"The index is bigger than the array's length\"\r\n        );\r\n        emit LogRecordRemoved(msg.sender, records[index]);\r\n        records[index] = records[records.length - 1];\r\n        records[index].index = index;\r\n        records.pop();\r\n    }\r\n}\r\n",
  "sourcePath": "C:/Users/jugli/Desktop/c5v/c5-dapp/contracts/TeamRecords.sol",
  "compiler": {
    "name": "solc",
    "version": "0.8.0+commit.c7dfd78e.Emscripten.clang"
  },
  "schemaVersion": "3.4.1",
  "updatedAt": "2021-06-08T17:45:43.586Z",
  "networkType": "ethereum",
  "devdoc": {
    "author": "Roman Vinogradov <dev.romanv@gmail.com>",
    "events": {
      "LogRecordAdded()": {
        "details": "Events: {LogRecordAdded} - emits on addRecord {LogRecordRemoved} - emits on removeRecord"
      }
    },
    "kind": "dev",
    "methods": {
      "addRecord((string,uint8),int256,int256)": {
        "details": "addRecord Creates new record and emits {LogRecordAdded} event"
      },
      "getRecordsCount()": {
        "details": "getRecordsCount Returns the length of the records array"
      },
      "removeRecord(uint256)": {
        "details": "removeRecord Removes the record from the contract, emits {LogRecordRemoved}"
      }
    },
    "stateVariables": {
      "records": {
        "details": "List of records"
      }
    },
    "title": "Forest tracking platform",
    "version": 1
  },
  "userdoc": {
    "kind": "user",
    "methods": {},
    "version": 1
  }
}