{
  "contractName": "TeamRecords",
  "abi": [
    {
      "anonymous": false,
      "inputs": [],
      "name": "LogRecordAdded",
      "type": "event"
    },
    {
      "inputs": [
        {
          "internalType": "uint256",
          "name": "",
          "type": "uint256"
        }
      ],
      "name": "records",
      "outputs": [
        {
          "internalType": "uint256",
          "name": "rTime",
          "type": "uint256"
        },
        {
          "components": [
            {
              "internalType": "string",
              "name": "IPFS",
              "type": "string"
            },
            {
              "internalType": "enum TeamRecords.FileType",
              "name": "fileType",
              "type": "uint8"
            }
          ],
          "internalType": "struct TeamRecords.File",
          "name": "rFile",
          "type": "tuple"
        },
        {
          "internalType": "int256",
          "name": "rLat",
          "type": "int256"
        },
        {
          "internalType": "int256",
          "name": "rLon",
          "type": "int256"
        }
      ],
      "stateMutability": "view",
      "type": "function",
      "constant": true
    },
    {
      "stateMutability": "payable",
      "type": "receive",
      "payable": true
    },
    {
      "inputs": [],
      "name": "getRecordsCount",
      "outputs": [
        {
          "internalType": "uint256",
          "name": "",
          "type": "uint256"
        }
      ],
      "stateMutability": "view",
      "type": "function",
      "constant": true
    },
    {
      "inputs": [
        {
          "components": [
            {
              "internalType": "string",
              "name": "IPFS",
              "type": "string"
            },
            {
              "internalType": "enum TeamRecords.FileType",
              "name": "fileType",
              "type": "uint8"
            }
          ],
          "internalType": "struct TeamRecords.File",
          "name": "_rFile",
          "type": "tuple"
        },
        {
          "internalType": "int256",
          "name": "_rLat",
          "type": "int256"
        },
        {
          "internalType": "int256",
          "name": "_rLon",
          "type": "int256"
        }
      ],
      "name": "addRecord",
      "outputs": [],
      "stateMutability": "nonpayable",
      "type": "function"
    }
  ],
  "bytecode": "0x608060405234801561001057600080fd5b506109a4806100206000396000f3fe6080604052600436106100385760003560e01c8063344610671461007d578063505158bb146100bd578063e6c6257c146100e857610078565b36610078576040517f08c379a000000000000000000000000000000000000000000000000000000000815260040161006f906106bc565b60405180910390fd5b600080fd5b34801561008957600080fd5b506100a4600480360381019061009f91906105b0565b610111565b6040516100b494939291906106f7565b60405180910390f35b3480156100c957600080fd5b506100d2610274565b6040516100df91906106dc565b60405180910390f35b3480156100f457600080fd5b5061010f600480360381019061010a9190610549565b610280565b005b6000818154811061012157600080fd5b90600052602060002090600502016000915090508060000154908060010160405180604001604052908160008201805461015a9061084c565b80601f01602080910402602001604051908101604052809291908181526020018280546101869061084c565b80156101d35780601f106101a8576101008083540402835291602001916101d3565b820191906000526020600020905b8154815290600101906020018083116101b657829003601f168201915b505050505081526020016001820160009054906101000a900460ff166004811115610227577f4e487b7100000000000000000000000000000000000000000000000000000000600052602160045260246000fd5b600481111561025f577f4e487b7100000000000000000000000000000000000000000000000000000000600052602160045260246000fd5b81525050908060030154908060040154905084565b60008080549050905090565b600060405180608001604052804281526020018581526020018481526020018381525090806001815401808255809150506001900390600052602060002090600502016000909190919091506000820151816000015560208201518160010160008201518160000190805190602001906102fb92919061039b565b5060208201518160010160006101000a81548160ff0219169083600481111561034d577f4e487b7100000000000000000000000000000000000000000000000000000000600052602160045260246000fd5b02179055505050604082015181600301556060820151816004015550507f96ff4d1a0a02d8a16f5f2569c1bd1172f3e60b98d526e01226abca6b797dbde260405160405180910390a1505050565b8280546103a79061084c565b90600052602060002090601f0160209004810192826103c95760008555610410565b82601f106103e257805160ff1916838001178555610410565b82800160010185558215610410579182015b8281111561040f5782518255916020019190600101906103f4565b5b50905061041d9190610421565b5090565b5b8082111561043a576000816000905550600101610422565b5090565b600061045161044c84610774565b610743565b90508281526020810184848401111561046957600080fd5b61047484828561080a565b509392505050565b60008135905061048b81610930565b92915050565b6000813590506104a081610940565b92915050565b600082601f8301126104b757600080fd5b81356104c784826020860161043e565b91505092915050565b6000604082840312156104e257600080fd5b6104ec6040610743565b9050600082013567ffffffffffffffff81111561050857600080fd5b610514848285016104a6565b60008301525060206105288482850161047c565b60208301525092915050565b60008135905061054381610957565b92915050565b60008060006060848603121561055e57600080fd5b600084013567ffffffffffffffff81111561057857600080fd5b610584868287016104d0565b935050602061059586828701610491565b92505060406105a686828701610491565b9150509250925092565b6000602082840312156105c257600080fd5b60006105d084828501610534565b91505092915050565b6105e2816107f8565b82525050565b6105f1816107e4565b82525050565b6000610602826107a4565b61060c81856107af565b935061061c818560208601610819565b6106258161090b565b840191505092915050565b600061063d6019836107c0565b91507f5061796d656e747320617265206e6f74206163636570746564000000000000006000830152602082019050919050565b6000604083016000830151848203600086015261068d82826105f7565b91505060208301516106a260208601826105d9565b508091505092915050565b6106b6816107ee565b82525050565b600060208201905081810360008301526106d581610630565b9050919050565b60006020820190506106f160008301846106ad565b92915050565b600060808201905061070c60008301876106ad565b818103602083015261071e8186610670565b905061072d60408301856105e8565b61073a60608301846105e8565b95945050505050565b6000604051905081810181811067ffffffffffffffff8211171561076a576107696108dc565b5b8060405250919050565b600067ffffffffffffffff82111561078f5761078e6108dc565b5b601f19601f8301169050602081019050919050565b600081519050919050565b600082825260208201905092915050565b600082825260208201905092915050565b60008190506107df8261091c565b919050565b6000819050919050565b6000819050919050565b6000610803826107d1565b9050919050565b82818337600083830152505050565b60005b8381101561083757808201518184015260208101905061081c565b83811115610846576000848401525b50505050565b6000600282049050600182168061086457607f821691505b60208210811415610878576108776108ad565b5b50919050565b7f4e487b7100000000000000000000000000000000000000000000000000000000600052602160045260246000fd5b7f4e487b7100000000000000000000000000000000000000000000000000000000600052602260045260246000fd5b7f4e487b7100000000000000000000000000000000000000000000000000000000600052604160045260246000fd5b6000601f19601f8301169050919050565b6005811061092d5761092c61087e565b5b50565b6005811061093d57600080fd5b50565b610949816107e4565b811461095457600080fd5b50565b610960816107ee565b811461096b57600080fd5b5056fea264697066735822122018e4899927e86c617e124e11743168972762148d61b6b7772a2b247f3ba186a264736f6c63430008000033",
  "immutableReferences": {},
  "source": "// SPDX-License-Identifier: MIT\r\npragma solidity ^0.8.0;\r\n\r\n/**\r\n * @title Forest tracking platform\r\n * @author Roman Vinogradov <dev.romanv@gmail.com>\r\n */\r\ncontract TeamRecords {\r\n    enum FileType {Photo, Text, Audio, Video, PDF}\r\n    struct File {\r\n        string IPFS;\r\n        FileType fileType;\r\n    }\r\n\r\n    /**\r\n     * @dev Record:\r\n     * {rTime} - timestamp of the record\r\n     * {rFile} - IPFS hash of the photo + FileType enum\r\n     * {rLat, rLon} - GPS coordinates of the plant multiplied by 100000000\r\n     */\r\n    struct Record {\r\n        uint256 rTime;\r\n        File rFile;\r\n        int256 rLat;\r\n        int256 rLon;\r\n    }\r\n\r\n    /**\r\n     * @dev List of records\r\n     */\r\n    Record[] public records;\r\n\r\n    /**\r\n     * @dev Events:\r\n     * {LogRecordAdded} - emits on addRecord\r\n     */\r\n    event LogRecordAdded();\r\n\r\n    receive() external payable {\r\n        revert(\"Payments are not accepted\");\r\n    }\r\n\r\n    /**\r\n     * @dev getRecordsCount\r\n     * Returns the length of the records array\r\n     */\r\n    function getRecordsCount() public view returns (uint256) {\r\n        return records.length;\r\n    }\r\n\r\n    /**\r\n     * @dev addRecord\r\n     * Creates new record and emits {LogRecordAdded} event\r\n     */\r\n    function addRecord(\r\n        File memory _rFile,\r\n        int256 _rLat,\r\n        int256 _rLon\r\n    ) public {\r\n        records.push(Record(block.timestamp, _rFile, _rLat, _rLon));\r\n        emit LogRecordAdded();\r\n    }\r\n}\r\n",
  "sourcePath": "C:/Users/jugli/Desktop/c5v/c5-dapp/contracts/TeamRecords.sol",
  "compiler": {
    "name": "solc",
    "version": "0.8.0+commit.c7dfd78e.Emscripten.clang"
  },
  "schemaVersion": "3.4.1",
  "updatedAt": "2021-06-08T12:20:04.050Z",
  "networkType": "ethereum",
  "devdoc": {
    "author": "Roman Vinogradov <dev.romanv@gmail.com>",
    "events": {
      "LogRecordAdded()": {
        "details": "Events: {LogRecordAdded} - emits on addRecord"
      }
    },
    "kind": "dev",
    "methods": {
      "addRecord((string,uint8),int256,int256)": {
        "details": "addRecord Creates new record and emits {LogRecordAdded} event"
      },
      "getRecordsCount()": {
        "details": "getRecordsCount Returns the length of the records array"
      }
    },
    "stateVariables": {
      "records": {
        "details": "List of records"
      }
    },
    "title": "Forest tracking platform",
    "version": 1
  },
  "userdoc": {
    "kind": "user",
    "methods": {},
    "version": 1
  }
}